:100000000C945D000C9485000C9485000C94850084
:100010000C9485000C9485000C9485000C9485004C
:100020000C9485000C9485000C9485000C942F038F
:100030000C9485000C9485000C9485000C9485002C
:100040000C948D020C9485000C94FD020C94D70244
:100050000C9485000C9485000C9485000C9485000C
:100060000C9485000C94850000000008000201003B
:100070000003040700000000000000000000000072
:10008000250028002B0000000000240027002A0083
:10009000040404040404040402020202020203032E
:1000A0000303030301020408102040800102040836
:1000B0001020010204081020EB0311241FBECFEF13
:1000C000D8E0DEBFCDBF11E0A0E0B1E0E2EEFFE09E
:1000D00002C005900D92A231B107D9F721E0A2E14B
:1000E000B1E001C01D92A43EB207E1F710E0CDE5FA
:1000F000D0E004C02197FE010E944607CC35D1070D
:10010000C9F70E9462040C94EF070C94000090E081
:10011000FC01EC55FF4F249180579F4FFC018491C7
:10012000882399F090E0880F991FFC01EA57FF4F50
:10013000A591B491FC01E458FF4F859194918FB73C
:10014000F894EC91E22BEC938FBF089590E0FC01C2
:10015000E859FF4F2491FC01EC55FF4F3491FC010D
:10016000E057FF4FE491EE23C9F0222339F023300A
:1001700001F1A8F4213019F1223029F1F0E0EE0F5D
:10018000FF1FE458FF4FA591B4918FB7F894EC91FD
:10019000611126C030953E233C938FBF08952730D0
:1001A000A9F02830C9F0243049F7809180008F7D74
:1001B00003C0809180008F7780938000DFCF84B56B
:1001C0008F7784BDDBCF84B58F7DFBCF8091B0006E
:1001D0008F778093B000D2CF8091B0008F7DF9CF20
:1001E0003E2BDACFAF92BF92CF92DF92EF92FF9287
:1001F0000F931F93CF93DF936C017B018B01040F4F
:10020000151FEB015E01AE18BF08C017D10759F0EA
:100210006991D601ED91FC910190F081E02DC6012C
:100220000995892B79F7C501DF91CF911F910F9126
:10023000FF90EF90DF90CF90BF90AF900895FC01BA
:10024000538D448D252F30E0842F90E0821B930B3B
:10025000541710F0CF96089501970895FC01918DE1
:10026000828D981761F0A28DAE0FBF2FB11D5D96E4
:100270008C91928D9F5F9F73928F90E008958FEF86
:100280009FEF0895FC01918D828D981731F0828D3A
:10029000E80FF11D858D90E008958FEF9FEF089591
:1002A000FC01918D228D892F90E0805C9F4F821BF5
:1002B00091098F73992708958CE191E00E94500174
:1002C00021E0892B09F420E0822F089580E090E05E
:1002D000892B29F00E945C0181110C940000089583
:1002E000FC01A48DA80FB92FB11DA35ABF4F2C91AB
:1002F000848D90E001968F739927848FA689B789A2
:100300002C93A089B1898C91837080648C93938D98
:10031000848D981306C00288F389E02D80818F7D3B
:1003200080830895EF92FF920F931F93CF93DF93F3
:10033000EC0181E0888F9B8D8C8D98131AC0E88921
:10034000F989808185FF15C09FB7F894EE89FF89F0
:100350006083E889F98980818370806480839FBF8E
:1003600081E090E0DF91CF911F910F91FF90EF908E
:100370000895F62E0B8D10E00F5F1F4F0F7311279E
:10038000E02E8C8D8E110CC00FB607FCFACFE889D9
:10039000F989808185FFF5CFCE010E947001F1CFF0
:1003A000EB8DEC0FFD2FF11DE35AFF4FF0829FB74D
:1003B000F8940B8FEA89FB8980818062CFCFCF933D
:1003C000DF93EC01888D8823B9F0AA89BB89E8897D
:1003D000F9898C9185FD03C0808186FD0DC00FB623
:1003E00007FCF7CF8C9185FFF2CF808185FFEDCFA1
:1003F000CE010E947001E9CFDF91CF910895CF9295
:10040000DF92EF92FF92CF93DF93EC01603282E0B4
:100410007807CCF5653B710514F064EB70E08981D9
:1004200028E830E0281B310987FD3395220F331F60
:10043000220F331F6901330FEE08FF088A8128E578
:1004400032E0281B310987FD3395220F331F220F1D
:10045000331F032E000C440B550B2C193D094E097C
:100460005F09DB0177FF02C0B0E0A0E00E94010756
:1004700024EB30E040E050E00E94D706C20ED31ECD
:10048000E41EF51EB601E881EC3070F5298188E89C
:1004900090E0821B910927FD9395880F991F880F83
:1004A000991F681779077CF02A8188E592E0821B02
:1004B000910927FD9395880F991F880F991F681739
:1004C00079070CF4CB010297880F991F4FB7F89466
:1004D0002E2F30E0F901EE0FFF1FE20FF31FE7545C
:1004E000FE4F928381834FBFDF91CF91FF90EF90BA
:1004F000DF90CF900895892B79F41092800082E0EC
:10050000809381001092850010928400B19A8091AE
:100510006F00826080936F0008951F920F920FB654
:100520000F9211242F933F938F939F93AF93BF9379
:100530008091180190911901A0911A01B0911B01AD
:100540003091170123E0230F2D3758F50196A11D97
:10055000B11D209317018093180190931901A09366
:100560001A01B0931B018091130190911401A09185
:100570001501B09116010196A11DB11D80931301C3
:1005800090931401A0931501B0931601BF91AF9100
:100590009F918F913F912F910F900FBE0F901F90C1
:1005A000189526E8230F0296A11DB11DD2CF1F92E8
:1005B0000F920FB60F9211242F933F934F935F9397
:1005C0006F937F938F939F93AF93BF93EF93FF931B
:1005D0008CE191E00E947001FF91EF91BF91AF918A
:1005E0009F918F917F916F915F914F913F912F914B
:1005F0000F900FBE0F901F9018951F920F920FB67D
:100600000F9211242F938F939F93EF93FF93E09179
:100610002C01F0912D018081E0913201F0913301A4
:1006200082FD1BC09081809135018F5F8F73209177
:100630003601821741F0E0913501F0E0E45EFE4FB3
:10064000958F80933501FF91EF919F918F912F911D
:100650000F900FBE0F901F9018958081F4CF1F92BE
:100660000F920FB60F9211242F933F934F935F93E6
:100670006F937F938F939F93AF93BF93CF93DF93AA
:10068000EF93FF9380911201C091DD01D0E087FFCD
:1006900024C01092850010928400809112018F5F17
:1006A0008093120180911201082E000C990B8C1777
:1006B0009D0724F4809112018C30C4F18091840054
:1006C00090918500049680349C4908F47AC080910A
:1006D000840090918500049676C080911201082EC6
:1006E000000C990B8C179D07C4F6E09112018E2F18
:1006F000EE0F990BFC01EE0FFF1FE80FF91FE754F7
:10070000FE4F808186FFC9CFE09112018E2FEE0F40
:10071000990BFC01EE0FFF1FE80FF91FE754FE4F86
:10072000808160E08F730E94A600B7CF2091840083
:1007300030918500E09112018E2FEE0F990BFC0194
:10074000EE0FFF1FE80FF91FE754FE4F81819281E2
:10075000820F931F9093890080938800E09112018B
:100760008E2FEE0F990BFC01EE0FFF1FE80FF91F04
:10077000E754FE4F808186FF11C0E09112018E2F59
:10078000EE0F990BFC01EE0FFF1FE80FF91FE75466
:10079000FE4F808161E08F730E94A600FF91EF9170
:1007A000DF91CF91BF91AF919F918F917F916F9189
:1007B0005F914F913F912F910F900FBE0F901F901F
:1007C000189580E49CE990938900809388008FEFCE
:1007D00080931201E3CF10921F0110921E0188EE48
:1007E00093E0A0E0B0E08093200190932101A093DA
:1007F0002201B093230184E091E090931D01809346
:100800001C0185EC90E0909329018093280184ECF1
:1008100090E090932B0180932A0180EC90E09093DC
:100820002D0180932C0181EC90E090932F01809317
:100830002E0182EC90E0909331018093300186ECA0
:1008400090E0909333018093320110923501109221
:10085000360110923701109238018091DD018C3001
:1008600048F591E0980F9093DD018093E10190E0CD
:10087000FC01EE0FFF1FE80FF91FE754FE4F88EB56
:100880009BE0928381838091DD018C30B8F491E00C
:10089000980F9093DD018093DE0190E0FC01EE0F54
:1008A000FF1FE80FF91FE754FE4F88EB9BE0928390
:1008B000818308958FEF8093E101E5CF8FEF8093DF
:1008C000DE010895CF93DF93CDB7DEB728970FB63B
:1008D000F894DEBF0FBECDBF789484B5826084BD2E
:1008E00084B5816084BD85B5826085BD85B5816034
:1008F00085BD80916E00816080936E0010928100B2
:10090000809181008260809381008091810081606C
:10091000809381008091800081608093800080912D
:10092000B10084608093B1008091B00081608093B9
:10093000B00080917A00846080937A0080917A0080
:10094000826080937A0080917A00816080937A003F
:1009500080917A00806880937A001092C100E091C3
:100960002C01F0912D0182E08083E0912801F0912B
:1009700029011082E0912A01F0912B018FEC8083F4
:1009800010923401E0913001F091310186E08083D2
:10099000E0912E01F0912F01808180618083E091B0
:1009A0002E01F0912F01808188608083E0912E01DB
:1009B000F0912F01808180688083E0912E01F09179
:1009C0002F0180818F7D80838091E1018C3008F040
:1009D00042C089E00E9487008091E101282F30E029
:1009E000F901EE0FFF1FE20FF31FE754FE4F908156
:1009F000907C996090831092E2011092E3012CE0C8
:100A0000622F0E943A0790E0829FB001112430E0EB
:100A100020E0AB01420F531FFA01EE0FFF1FE40F5E
:100A2000F51FE754FE4F408146FD07C02F5F3F4F43
:100A30002C30310571F70E947B02E091E1018E2F8D
:100A400090E0FC01EE0FFF1FE80FF91FE754FE4F87
:100A50008081806480838091DE018C3008F042C008
:100A60008AE00E9487008091DE01282F30E0F901A2
:100A7000EE0FFF1FE20FF31FE754FE4F9081907CB3
:100A80009A6090831092DF011092E0012CE0622FB7
:100A90000E943A0790E0829FB001112430E020E0EC
:100AA000AB01420F531FFA01EE0FFF1FE40FF51FBA
:100AB000E754FE4F408146FD07C02F5F3F4F2C306B
:100AC000310571F70E947B02E091DE018E2F90E0EC
:100AD000FC01EE0FFF1FE80FF91FE754FE4F808166
:100AE000806480837E0189E0E80EF11C00E010E064
:100AF0008CE191E00E94500108970CF486C0FE0141
:100B000031965F012FB7F8948091180190911901E7
:100B1000A0911A01B0911B012FBF809324019093E3
:100B20002501A0932601B09327018CE191E00E945A
:100B30002E0197FF76C02FB7F894809118019091FD
:100B40001901A0911A01B0911B012FBF40912401FE
:100B5000509125016091260170912701841B950B0E
:100B6000A60BB70B40912001509121016091220109
:100B70007091230184179507A607B707B0F220E00C
:100B800030E048E452E469817A818B819C810E9443
:100B900019064B015C0120E030E040EF51E46D812B
:100BA0007E818F8198850E9419062B013C01AC0142
:100BB0009B01C501B4010E944C070E94B907665A07
:100BC0007F4F653B710514F064EB70E077FF02C066
:100BD00070E060E081EE91E00E94FF01A3019201CC
:100BE000C501B4010E944D070E94B907665A7F4FA4
:100BF000653B710514F064EB70E077FF02C070E0B4
:100C000060E08EED91E00E94FF010115110509F4ED
:100C10006FCF0E945C01882309F46ACF0E94000014
:100C200067CFF50181935F01EE16FF0609F06ACFE9
:100C3000A6CF0E942C060C949D060E948F0638F0C9
:100C40000E94960620F0952311F00C9486060C94D1
:100C50008C0611240C94D1060E94AE0670F3959F69
:100C6000C1F3950F50E0551F629FF001729FBB27A3
:100C7000F00DB11D639FAA27F00DB11DAA1F649F3F
:100C80006627B00DA11D661F829F2227B00DA11DF2
:100C9000621F739FB00DA11D621F839FA00D611D78
:100CA000221F749F3327A00D611D231F849F600D99
:100CB000211D822F762F6A2F11249F5750409AF0C2
:100CC000F1F088234AF0EE0FFF1FBB1F661F771F4E
:100CD000881F91505040A9F79E3F510580F00C9419
:100CE00086060C94D1065F3FE4F3983ED4F38695D4
:100CF00077956795B795F795E7959F5FC1F7FE2BB9
:100D0000880F911D9695879597F9089597F99F6794
:100D100080E870E060E008959FEF80EC0895002483
:100D20000A941616170618060906089500240A9450
:100D300012161306140605060895092E0394000CD6
:100D400011F4882352F0BB0F40F4BF2B11F460FF65
:100D500004C06F5F7F4F8F4F9F4F089557FD90588E
:100D6000440F551F59F05F3F71F04795880F97FB6F
:100D7000991F61F09F3F79F0879508951216130629
:100D80001406551FF2CF4695F1DF08C01616170658
:100D90001806991FF1CF869571056105089408958D
:100DA000E894BB2766277727CB0197F90895052E8E
:100DB00097FB1EF400940E94EE0657FD07D00E9498
:100DC000090707FC03D04EF40C94EE0650954095AD
:100DD000309521953F4F4F4F5F4F089590958095E7
:100DE000709561957F4F8F4F9F4F08950E942B07FD
:100DF000A59F900DB49F900DA49F800D911D11246F
:100E00000895B7FF0C94F6060E94F606821B930B1A
:100E10000895A1E21A2EAA1BBB1BFD010DC0AA1F3B
:100E2000BB1FEE1FFF1FA217B307E407F50720F053
:100E3000A21BB30BE40BF50B661F771F881F991FCE
:100E40001A9469F760957095809590959B01AC0117
:100E5000BD01CF010895A29FB001B39FC001A39F20
:100E6000700D811D1124911DB29F700D811D1124E3
:100E7000911D0895991B79E004C0991F961708F0F9
:100E8000961B881F7A95C9F780950895EE0FFF1F6E
:100E90000590F491E02D09945058BB27AA270E9491
:100EA00064070C949D060E948F0638F00E949606F7
:100EB00020F039F49F3F19F426F40C948C060EF4BC
:100EC000E095E7FB0C948606E92F0E94AE0658F3E6
:100ED000BA17620773078407950720F079F4A6F51F
:100EE0000C94D0060EF4E0950B2EBA2FA02D0B011A
:100EF000B90190010C01CA01A0011124FF27591B5F
:100F000099F0593F50F4503E68F11A16F040A22F64
:100F1000232F342F4427585FF3CF469537952795D5
:100F2000A795F0405395C9F77EF41F16BA0B620BD4
:100F3000730B840BBAF09150A1F0FF0FBB1F661F1B
:100F4000771F881FC2F70EC0BA0F621F731F841F5E
:100F500048F4879577956795B795F7959E3F08F084
:100F6000B0CF9395880F08F09927EE0F9795879546
:100F700008950E94C0076894B1110C94D106089599
:100F80000E94B60688F09F5798F0B92F9927B7515D
:100F9000B0F0E1F0660F771F881F991F1AF0BA951D
:100FA000C9F714C0B13091F00E94D006B1E00895A5
:100FB0000C94D006672F782F8827B85F39F0B93F97
:100FC000CCF3869577956795B395D9F73EF49095D0
:100FD0008095709561957F4F8F4F9F4F0895F8943E
:020FE000FFCF41
:100FE200000000009201F2001F01DF0150012E01FA
:020FF2004201BA
:00000001FF
